{
  "contractName": "ProofOfExistence",
  "abi": [
    {
      "constant": true,
      "inputs": [
        {
          "name": "",
          "type": "uint256"
        }
      ],
      "name": "hash_text",
      "outputs": [
        {
          "name": "",
          "type": "bytes32"
        }
      ],
      "payable": false,
      "stateMutability": "view",
      "type": "function"
    },
    {
      "constant": true,
      "inputs": [
        {
          "name": "",
          "type": "uint256"
        }
      ],
      "name": "owner",
      "outputs": [
        {
          "name": "",
          "type": "address"
        }
      ],
      "payable": false,
      "stateMutability": "view",
      "type": "function"
    },
    {
      "constant": false,
      "inputs": [
        {
          "name": "hash_t",
          "type": "string"
        }
      ],
      "name": "registerDoc",
      "outputs": [
        {
          "name": "",
          "type": "uint256"
        }
      ],
      "payable": false,
      "stateMutability": "nonpayable",
      "type": "function"
    },
    {
      "constant": true,
      "inputs": [],
      "name": "getId",
      "outputs": [
        {
          "name": "",
          "type": "int256"
        }
      ],
      "payable": false,
      "stateMutability": "view",
      "type": "function"
    },
    {
      "constant": false,
      "inputs": [
        {
          "name": "docId",
          "type": "uint256"
        },
        {
          "name": "texto",
          "type": "string"
        }
      ],
      "name": "compare",
      "outputs": [
        {
          "name": "",
          "type": "bool"
        }
      ],
      "payable": false,
      "stateMutability": "nonpayable",
      "type": "function"
    }
  ],
  "bytecode": "0x60806040527fffffffffffffffffffffffffffffffffffffffffffffffffffffffffffffffff60205534801561003457600080fd5b5061047a806100446000396000f30060806040526004361061006d576000357c0100000000000000000000000000000000000000000000000000000000900463ffffffff168063191b52e5146100725780635d1ca631146100ef5780636967a90c1461011a57806383dbd28a14610163578063a123c33e146101ee575b600080fd5b34801561007e57600080fd5b506100d9600480360381019080803590602001908201803590602001908080601f016020809104026020016040519081016040528093929190818152602001838380828437820191505050505050919291929050505061025b565b6040518082815260200191505060405180910390f35b3480156100fb57600080fd5b50610104610358565b6040518082815260200191505060405180910390f35b34801561012657600080fd5b5061014560048036038101908080359060200190929190505050610362565b60405180826000191660001916815260200191505060405180910390f35b34801561016f57600080fd5b506101d460048036038101908080359060200190929190803590602001908201803590602001908080601f016020809104026020016040519081016040528093929190818152602001838380828437820191505050505050919291929050505061037c565b604051808215151515815260200191505060405180910390f35b3480156101fa57600080fd5b5061021960048036038101908080359060200190929190505050610403565b604051808273ffffffffffffffffffffffffffffffffffffffff1673ffffffffffffffffffffffffffffffffffffffff16815260200191505060405180910390f35b600080610266610438565b90506000811015801561027a5750600f8111155b151561028557600080fd5b3360008260108110151561029557fe5b0160006101000a81548173ffffffffffffffffffffffffffffffffffffffff021916908373ffffffffffffffffffffffffffffffffffffffff160217905550826040518082805190602001908083835b60208310151561030a57805182526020820191506020810190506020830392506102e5565b6001836020036101000a038019825116818451168082178552505050505050905001915050604051809103902060108260108110151561034657fe5b01816000191690555080915050919050565b6000602054905090565b60108160108110151561037157fe5b016000915090505481565b6000816040518082805190602001908083835b6020831015156103b4578051825260208201915060208101905060208303925061038f565b6001836020036101000a0380198251168184511680821785525050505050509050019150506040518091039020600019166010846010811015156103f457fe5b01546000191614905092915050565b60008160108110151561041257fe5b016000915054906101000a900473ffffffffffffffffffffffffffffffffffffffff1681565b60006001602054016020819055506020549050905600a165627a7a72305820da5c4187974d6fd85572e6060e9328c8fce4ace242770e8974b0f3f621e208350029",
  "source": "pragma solidity ^0.4.17;\n\ncontract ProofOfExistence {    \n    address[16] public owner;\n    bytes32[16] public hash_text;\n    int id = -1;\n\n    // Adopting a pet\n    function registerDoc(string hash_t) public returns (uint) {\n        uint docId = nextId();\n        require(docId >= 0 && docId <= 15);\n\n        owner[docId] = msg.sender;\n        hash_text[docId] = keccak256(hash_t);\n        \n        return docId;\n    }\n\n    function nextId() private returns (uint) {\n        id = id + 1;\n        return uint(id);\n    }\n\n    function getId() public view returns (int) {\n        return id;\n    }\n    // Retrieving the docs\n    /*\n    function getDocs() public view returns (string[16]) {\n        return hash_text;\n    }*/\n\n    function compare(uint docId, string texto) public returns (bool) {\n        return hash_text[docId] == keccak256(texto);\n    }\n}",
  "sourcePath": "/home/hhaji/Desktop/trabalho_sd/pet-shop-box-master/contracts/ProofOfExistence.sol",
  "compiler": {
    "name": "solc",
    "version": "0.4.24+commit.e67f0147.Emscripten.clang"
  },
  "schemaVersion": "2.0.0",
  "updatedAt": "2018-06-26T02:28:53.008Z"
}